:100000000C9434000C9451000C9451000C94510049
:100010000C9451000C9451000C9451000C9451001C
:100020000C9451000C9451000C9451000C9451000C
:100030000C9451000C9451000C9451000C945100FC
:100040000C9453000C9451000C9451000C945100EA
:100050000C9451000C9451000C9451000C945100DC
:100060000C9451000C94510011241FBECFEFD4E02A
:10007000DEBFCDBF11E0A0E0B1E0ECEBF2E002C0EA
:1000800005900D92A030B107D9F711E0A0E0B1E0E2
:1000900001C01D92A430B107E1F70E9491000C94B9
:1000A0005C010C9400001F920F920FB60F92112466
:1000B0008F939F93AF93BF93809100019091010123
:1000C000A0910201B09103010196A11DB11D809381
:1000D000000190930101A0930201B09303018AE013
:1000E00086BDBF91AF919F918F910F900FBE0F90E2
:1000F0001F901895F89420910001309101014091D2
:100100000201509103017894B901CA01089514BC09
:1001100083E085BD8AE086BD81E080936E0078949F
:1001200008952F923F924F925F926F927F928F929B
:100130009F92AF92BF92CF92DF92EF92FF920F9376
:100140001F935298539A209A219884B1837C84B942
:100150008AB18F738AB985B18C6385B98BB1806C94
:100160008BB987B18C6387B98AB180638AB987B14B
:100170008C7F87B914BC83E085BD8AE086BD81E0B1
:1001800080936E00789470E0F0E060E0E0E0662438
:1001900077244301222433242101EE24FF24870104
:1001A000AA24BB246501F89420910001309101013B
:1001B000409102015091030178944A9B09C0772332
:1001C00011F071E00AC05B9871E0F0E081E006C0D8
:1001D000FF2319F45B9A70E0F1E080E0199B02C004
:1001E0008823D1F0662321F059016A0161E025C01E
:1001F00030990CC031990AC039014A01621873085C
:100200008408950819012A0179018A012898590161
:100210006A0161E0E0E011C0199B0FC0DA01C90179
:100220008A199B09AC09BD090B97A105B1052CF0F2
:10023000EE2319F4289A60E0E1E0D401C301B595FA
:10024000A795979587958E0D9F1DA01FB11F281705
:1002500039074A075B0711F4309B289AD801C70178
:10026000860D971DA81DB91D281739074A075B077A
:1002700021F4309B289879018A011A9B02C0429A86
:1002800001C042981B9B02C0439A01C043981C9B2B
:1002900002C0449A01C044981D9B02C0459A01C007
:1002A00045984E9B02C05D9A01C05D984F9B02C06D
:0C02B0005C9A79CF5C9877CFF894FFCF70
:00000001FF
